:100000000C942A000C9434000C9434000C943400AA
:100010000C9434000C9434000C9434000C94340090
:100020000C9434000C9434000C9434000C94340080
:100030000C9434000C9434000C9434000C94340070
:100040000C9434000C9434000C9434000C94340060
:100050000C94340011241FBECFE5D8E0DEBFCDBF25
:100060000E9436000C944A000C94000088EF81BB7B
:100070008FEF87BB12BA95E793BF19BE8CBF82EB97
:1000800096E629E180998CBF81999CBF829BFACF2B
:080090002CBFF8CFF894FFCF5C
:00000001FF
